:100000000C942A000C9447000C9447000C94470071
:100010000C9447000C9447000C9447000C94470044
:100020000C9447000C9447000C9447000C94470034
:100030000C9447000C94DF160C9447000C94470076
:100040000C9447000C9447000C9447000C94470014
:100050000C94470011241FBECFE5D8E0DEBFCDBF12
:1000600011E0A0E6B0E0E4E8F6E302C005900D92EE
:10007000A23BB107D9F712E0A2EBB1E001C01D929B
:10008000AD35B107E1F70E942E170C94401B0C947C
:100090000000EF92FF920F931F937B018C0120E0F1
:1000A00030E040E05FE40E94490388238CF0C801FF
:1000B000B70120E030E040E05FE40E94C1010E940F
:1000C000A9039B01AC01205030404040504806C07D
:1000D000C801B7010E94A9039B01AC01B901CA0183
:1000E0001F910F91FF90EF900895A0E0B0E0EBE733
:1000F000F0E00C94E017DC012B01FA019C919230A6
:1001000008F439C1EB018881823008F433C194309E
:1001100069F4843009F02FC111969C91119789815F
:10012000981709F428C1AAEAB1E025C1843009F47E
:1001300021C18230A9F4923009F01DC19A01AD01AC
:1001400088E0EA010990AE01E90109929E0181501F
:10015000C1F7E201898111969C918923818308C1AD
:10016000923009F407C112962D903C901397EB0141
:100170008A819B811496AD90BD90CD90DC901797AD
:10018000EC80FD800E811F819101281B390BB90184
:1001900037FF04C066277727621B730B6032710537
:1001A0000CF061C0121613066CF537014801062EDB
:1001B00004C096948794779467940A94D2F721E0C8
:1001C00030E040E050E004C0220F331F441F551FB1
:1001D0006A95D2F721503040404050402E213F21B7
:1001E00040235123211531054105510521F021E01E
:1001F00030E040E050E079018A01E628F72808293C
:1002000019293CC0232BD1F1260E371E350146019A
:10021000062E04C096948794779467940A94D2F734
:1002200021E030E040E050E004C0220F331F441FC3
:10023000551F6A95D2F721503040404050402A2146
:100240003B214C215D21211531054105510521F04E
:1002500021E030E040E050E059016A01A628B728CB
:10026000C828D9280BC0821593052CF01C01AA249C
:10027000BB24650103C0EE24FF24870111969C91E5
:10028000D20111968C91981709F445C0992339F041
:10029000A80197012A193B094C095D0906C0A6016E
:1002A00095012E193F09400B510B57FD08C01182D3
:1002B0003382228224833583468357831DC081E0A5
:1002C00081833382228288279927DC01821B930B4A
:1002D000A40BB50B84839583A683B7830DC0220F2F
:1002E000331F441F551F24833583468357838281E0
:1002F000938101979383828324813581468157813D
:10030000DA01C9010197A109B1098F5F9F4FAF4F72
:10031000BF4328F30BC0918333822282EA0CFB1C7B
:100320000C1D1D1DE482F5820683178383E0808304
:10033000248135814681578157FF1AC0C901AA27F8
:1003400097FDA095BA2F81709070A070B0705695EF
:10035000479537952795822B932BA42BB52B848318
:100360009583A683B7838281938101969383828349
:10037000DF0101C0D201CD01CDB7DEB7E2E10C94BF
:10038000FC17A0E2B0E0E7ECF1E00C94EC17698315
:100390007A838B839C832D833E834F835887E9E048
:1003A000EE2EF12CEC0EFD1ECE010196B7010E943F
:1003B000D2048E010F5E1F4FCE010596B8010E9438
:1003C000D2048A8991E089278A8BC701B801AE01DE
:1003D000475E5F4F0E9475000E94FD03A096E6E015
:1003E0000C940818A0E2B0E0E8EFF1E00C94EC17F0
:1003F00069837A838B839C832D833E834F835887C5
:10040000F9E0EF2EF12CEC0EFD1ECE010196B701A6
:100410000E94D2048E010F5E1F4FCE010596B801D7
:100420000E94D204C701B801AE01475E5F4F0E942F
:1004300075000E94FD03A096E6E00C940818A0E267
:10044000B0E0E5E2F2E00C94E01769837A838B83F5
:100450009C832D833E834F835887CE010196BE0136
:10046000675F7F4F0E94D204CE010596BE016F5E8A
:100470007F4F0E94D2049985923088F0898982301A
:10048000C8F0943019F4823051F404C0843029F457
:10049000923081F48AEA91E0C6C0923049F420E0BB
:1004A0009A858A89981321E02A87CE010996BBC0D4
:1004B000823049F420E09A858A89981321E02A8BBA
:1004C000CE014196B0C02D843E844F8458886D88FB
:1004D0007E888F88988CEE24FF248701AA24BB2471
:1004E000650140E050E060E070E0E0E0F0E0C10174
:1004F00081709070892BE9F0E60CF71C081D191D1E
:100500009A01AB012A0D3B1D4C1D5D1D80E090E062
:10051000A0E0B0E0E614F7040805190520F481E036
:1005200090E0A0E0B0E0BA01A901480F591F6A1F8E
:100530007B1FAA0CBB1CCC1CDD1C97FE08C081E0F5
:1005400090E0A0E0B0E0A82AB92ACA2ADB2A3196B6
:10055000E032F10549F0660C771C881C991C569412
:10056000479437942794C3CFFA85EA892B893C892D
:100570008B859C85280F391F2E5F3F4F17C0CA01FE
:1005800081709070892B61F016950795F794E79428
:1005900080E090E0A0E0B0E8E82AF92A0A2B1B2BC3
:1005A00076956795579547952F5F3F4F77FDE7CF36
:1005B0000CC0440F551F661F771F17FD4160EE0CDE
:1005C000FF1C001F111F21503040403090E05907A0
:1005D00090E0690790E4790760F32B8F3C8FDB0193
:1005E000CA018F779070A070B07080349105A1051A
:1005F000B10561F447FD0AC0E114F10401051105DC
:1006000029F0405C5F4F6F4F7F4F40781A8EFE1786
:1006100011F081E08A8F4D8F5E8F6F8F78A383E01A
:10062000898FCE0149960E94FD03A096E2E10C94C9
:10063000FC17A8E1B0E0EFE1F3E00C94EC1769835C
:100640007A838B839C832D833E834F83588789E0F5
:10065000E82EF12CEC0EFD1ECE010196B7010E9492
:10066000D2048E010F5E1F4FCE010596B8010E9485
:10067000D2048985823040F08989823028F0C70110
:10068000B8010E944A0501C08FEF6896E6E00C941D
:100690000818A8E1B0E0EFE4F3E00C94EC176983EC
:1006A0007A838B839C832D833E834F83588789E095
:1006B000E82EF12CEC0EFD1ECE010196B7010E9432
:1006C000D2048E010F5E1F4FCE010596B8010E9425
:1006D000D2048985823040F08989823028F0C701B0
:1006E000B8010E944A0501C08FEF6896E6E00C94BD
:1006F0000818A8E1B0E0EFE7F3E00C94EC17698389
:100700007A838B839C832D833E834F83588789E034
:10071000E82EF12CEC0EFD1ECE010196B7010E94D1
:10072000D2048E010F5E1F4FCE010596B8010E94C4
:10073000D2048985823040F08989823028F0C7014F
:10074000B8010E944A0501C081E06896E6E00C9479
:100750000818ACE0B0E0EFEAF3E00C94F01769831E
:100760007A838B839C83CE010196BE016B5F7F4FA2
:100770000E94D2048D81823061F1823050F1843048
:1007800021F48E81882351F12EC02F81388537FDC9
:1007900020C06E812F3131051CF06623F9F023C093
:1007A0008EE190E0821B930B29853A854B855C8511
:1007B00004C056954795379527958A95D2F76623B5
:1007C000B1F050954095309521953F4F4F4F5F4F79
:1007D0000EC020E030E040E050E009C02FEF3FEFD6
:1007E0004FEF5FE704C020E030E040E050E8B9019F
:1007F000CA012C96E2E00C940C18DF92EF92FF9263
:100800000F931F93FC01E480F58006811781D1804E
:100810008081823048F480E090E0A0E1B0E0E82AF6
:10082000F92A0A2B1B2BA5C0843009F49FC0823003
:1008300021F4EE24FF24870105C0E114F104010531
:10084000110519F4E0E0F0E096C0628173819FEF3A
:10085000623879070CF05BC022E83FEF261B370BAC
:100860002A3131052CF020E030E040E050E02AC091
:10087000B801A701022E04C0769567955795479554
:100880000A94D2F781E090E0A0E0B0E004C0880FC5
:10089000991FAA1FBB1F2A95D2F70197A109B10979
:1008A0008E219F21A023B1230097A105B10521F03E
:1008B00081E090E0A0E0B0E09A01AB01282B392B59
:1008C0004A2B5B2BDA01C9018F779070A070B07052
:1008D00080349105A105B10539F427FF09C0205CDA
:1008E0003F4F4F4F5F4F04C0215C3F4F4F4F5F4F13
:1008F000E0E0F0E02030A0E03A07A0E04A07A0E402
:100900005A0710F0E1E0F0E079018A0127C0603871
:10091000710564F5FB01E158FF4FD801C7018F77DE
:100920009070A070B07080349105A105B10539F4C4
:10093000E7FE0DC080E490E0A0E0B0E004C08FE3EB
:1009400090E0A0E0B0E0E80EF91E0A1F1B1F17FFA1
:1009500005C016950795F794E794319687E01695AC
:100960000795F794E7948A95D1F705C0EE24FF2404
:100970008701EFEFF0E06E2F679566276795902F60
:100980009F77D794DD24D7948E2F8695492F462BB9
:10099000582F5D29B701CA011F910F91FF90EF9069
:1009A000DF900895FC01DB01408151812281622F9B
:1009B0006F7770E0221F2227221F9381892F880FD3
:1009C000822B282F30E0991F9927991F11969C930D
:1009D000119721153105A9F54115510561057105DD
:1009E00011F482E037C082E89FEF13969C938E93B8
:1009F00012979A01AB0167E0220F331F441F551F66
:100A00006A95D1F783E08C930DC0220F331F441FEA
:100A1000551F12968D919C911397019713969C9355
:100A20008E931297203080E0380780E0480780E4FA
:100A3000580758F314962D933D934D935C93179755
:100A400008952F3F310579F4411551056105710570
:100A500019F484E08C93089564FF03C081E08C93C3
:100A600012C01C9210C02F57304013963C932E9307
:100A7000129783E08C9387E0440F551F661F771F02
:100A80008A95D1F7706414964D935D936D937C9322
:100A9000179708951F93DC01FB019C91923008F495
:100AA00047C08081823008F443C0943051F41196DD
:100AB0001C91843099F58181682F70E0611B710968
:100AC0003FC0843021F0923031F48230B9F181811D
:100AD000882389F12DC011961C9111978230F1F075
:100AE00081811817D9F412962D913C911397828128
:100AF00093818217930794F028173907BCF0149656
:100B00008D919D910D90BC91A02D248135814681C0
:100B10005781281739074A075B0718F4112341F05A
:100B20000AC082179307A407B50740F4112319F0F0
:100B300061E070E005C06FEF7FEF02C060E070E041
:100B4000CB011F910895DF93CF93CDB7DEB7A7E216
:100B5000B0E0E7E2F0E0808180648C93A7E2B0E04F
:100B6000E7E2F0E080818F778C93A7E2B0E0E7E2E4
:100B7000F0E0808180628C93A6E2B0E0E6E2F0E0F3
:100B800080818E7F8C93A6E2B0E0E6E2F0E0808187
:100B90008D7F8C93A6E2B0E0E6E2F0E080818B7F6F
:100BA0008C93A6E2B0E0E6E2F0E0808180688C936E
:100BB000A6E2B0E0E6E2F0E0808188608C93CF911D
:100BC000DF910895DF93CF9300D000D000D0CDB750
:100BD000DEB78C837E836D838B81803210F081E061
:100BE0008A83A7E2B0E0E7E2F0E08081807E8C9328
:100BF000A7E2B0E0E7E2F0E090818C81892B8C9352
:100C0000A6E2B0E0E6E2F0E0808180648C93E6E268
:100C1000F0E0808182958F70882F90E081709070D5
:100C20000097A9F3A6E2B0E0E6E2F0E080818061FF
:100C30008C93E5E2F0E08081882F90E0ED81FE81E9
:100C4000918380838A8126960FB6F894DEBF0FBE0B
:100C5000CDBFCF91DF910895DF93CF9300D000D027
:100C60000F92CDB7DEB78A836B8319828A81282FD2
:100C700030E03D832C838C819D8181309105D1F0C2
:100C80002C813D81223031052CF48C819D8100978F
:100C900061F01FC02C813D812230310581F08C81B3
:100CA0009D818330910581F014C0EAE3F0E08B81EF
:100CB000808311C0E7E3F0E08B8180830CC0E4E324
:100CC000F0E08B81808307C0E1E3F0E08B818083DB
:100CD00002C081E0898389810F900F900F900F905F
:100CE0000F90CF91DF910895DF93CF9300D000D084
:100CF0000F92CDB7DEB78A836B8319828A81282F42
:100D000030E03D832C838C819D8181309105D1F031
:100D10002C813D81223031052CF48C819D810097FE
:100D200061F01FC02C813D812230310581F08C8122
:100D30009D818330910581F014C0EBE3F0E08B815D
:100D4000808311C0E8E3F0E08B8180830CC0E5E391
:100D5000F0E08B81808307C0E2E3F0E08B81808349
:100D600002C081E0898389810F900F900F900F90CE
:100D70000F90CF91DF910895DF93CF9300D000D0F3
:100D800000D0CDB7DEB78A836B834C8319828B8109
:100D9000883018F081E08983B5C08C81882331F0D8
:100DA0008C81813019F081E08983ACC08A81282F41
:100DB00030E03E832D836D817E8161307105D1F1FC
:100DC0008D819E818230910534F42D813E812115E3
:100DD000310571F095C06D817E816230710509F435
:100DE0004BC08D819E818330910509F467C088C016
:100DF000AAE3B0E0EAE3F0E08081482F8B81282F5E
:100E000030E081E090E002C0880F991F2A95E2F758
:100E1000809548238C81282F30E08B81882F90E0AB
:100E2000B90102C0660F771F8A95E2F7CB01842BC8
:100E30008C9368C0A7E3B0E0E7E3F0E08081482F3F
:100E40008B81282F30E081E090E002C0880F991F4D
:100E50002A95E2F7809548238C81282F30E08B81FA
:100E6000882F90E0B90102C0660F771F8A95E2F7DC
:100E7000CB01842B8C9346C0A4E3B0E0E4E3F0E024
:100E80008081482F8B81282F30E081E090E002C0E4
:100E9000880F991F2A95E2F7809548238C81282F87
:100EA00030E08B81882F90E0B90102C0660F771F78
:100EB0008A95E2F7CB01842B8C9324C0A1E3B0E0A8
:100EC000E1E3F0E08081482F8B81282F30E081E042
:100ED00090E002C0880F991F2A95E2F78095482379
:100EE0008C81282F30E08B81882F90E0B90102C0DF
:100EF000660F771F8A95E2F7CB01842B8C9302C093
:100F000081E08983898126960FB6F894DEBF0FBEF3
:100F1000CDBFCF91DF910895DF93CF9300D000D064
:100F200000D0CDB7DEB78A836B834C8319828B8167
:100F3000883018F081E08983B5C08C81882331F036
:100F40008C81813019F081E08983ACC08A81282F9F
:100F500030E03E832D836D817E8161307105D1F15A
:100F60008D819E818230910534F42D813E81211541
:100F7000310571F095C06D817E816230710509F493
:100F80004BC08D819E818330910509F467C088C074
:100F9000ABE3B0E0EBE3F0E08081482F8B81282FBA
:100FA00030E081E090E002C0880F991F2A95E2F7B7
:100FB000809548238C81282F30E08B81882F90E00A
:100FC000B90102C0660F771F8A95E2F7CB01842B27
:100FD0008C9368C0A8E3B0E0E8E3F0E08081482F9C
:100FE0008B81282F30E081E090E002C0880F991FAC
:100FF0002A95E2F7809548238C81282F30E08B8159
:10100000882F90E0B90102C0660F771F8A95E2F73A
:10101000CB01842B8C9346C0A5E3B0E0E5E3F0E080
:101020008081482F8B81282F30E081E090E002C042
:10103000880F991F2A95E2F7809548238C81282FE5
:1010400030E08B81882F90E0B90102C0660F771FD6
:101050008A95E2F7CB01842B8C9324C0A2E3B0E005
:10106000E2E3F0E08081482F8B81282F30E081E09F
:1010700090E002C0880F991F2A95E2F780954823D7
:101080008C81282F30E08B81882F90E0B90102C03D
:10109000660F771F8A95E2F7CB01842B8C9302C0F1
:1010A00081E08983898126960FB6F894DEBF0FBE52
:1010B000CDBFCF91DF910895DF93CF9300D000D0C3
:1010C00000D0CDB7DEB78A837C836B838B819C8114
:1010D000009719F481E089833DC08A81282F30E090
:1010E0003E832D838D819E8181309105E1F02D819C
:1010F0003E81223031052CF48D819E81009761F074
:1011000027C02D813E8122303105A1F08D819E8145
:1011100083309105B1F01CC0E9E3F0E08081EB8100
:10112000FC81808317C0E6E3F0E08081EB81FC81E5
:10113000808310C0E3E3F0E08081EB81FC81808359
:1011400009C0E0E3F0E08081EB81FC81808302C094
:1011500081E08983898126960FB6F894DEBF0FBEA1
:10116000CDBFCF91DF910895DF93CF93CDB7DEB799
:1011700027970FB6F894DEBF0FBECDBF8A836B836F
:101180005D834C838C819D81009719F481E0898374
:1011900079C08B81883018F081E0898373C08A819F
:1011A000282F30E03F832E834E815F8141305105EF
:1011B00059F18E819F818230910534F42E813F81D7
:1011C0002115310569F05CC04E815F8142305105C7
:1011D00079F18E819F818330910509F43DC050C023
:1011E000E9E3F0E08081282F30E08B81882F90E0C8
:1011F000A90102C0559547958A95E2F7CA01817009
:10120000EC81FD8180833EC0E6E3F0E08081282F01
:1012100030E08B81882F90E0A90102C05595479559
:101220008A95E2F7CA018170EC81FD8180832AC032
:10123000E3E3F0E08081282F30E08B81882F90E07D
:10124000A90102C0559547958A95E2F7CA018170B8
:10125000EC81FD81808316C0E0E3F0E08081282FDF
:1012600030E08B81882F90E0A90102C05595479509
:101270008A95E2F7CA018170EC81FD81808302C00A
:1012800081E08983898127960FB6F894DEBF0FBE6F
:10129000CDBFCF91DF910895DF93CF93CDB7DEB768
:1012A00082E06FEF0E942C0680E064E041E00E9443
:1012B000BC0680E062E041E00E94BC0680E063E0A2
:1012C00041E00E94BC06CF91DF910895DF93CF9358
:1012D000CDB7DEB72F970FB6F894DEBF0FBECDBFE8
:1012E0008F8780E064E040E00E948C0780E062E04D
:1012F00040E00E948C0780E063E040E00E948C07A1
:1013000082E06F850E94740680E064E041E00E9404
:101310008C0780E090E0A0E0B0E48B879C87AD87ED
:10132000BE876B857C858D859E8520E030E04AEF09
:1013300054E40E941F02DC01CB018F839887A987A8
:10134000BA876F81788589859A8520E030E040E80A
:101350005FE30E94790388232CF481E090E09E8370
:101360008D833FC06F81788589859A8520E03FEF26
:101370004FE757E40E94190318164CF56B857C85DE
:101380008D859E8520E030E040E251E40E941F02FE
:10139000DC01CB01BC01CD010E944900DC01CB0185
:1013A0009E838D830FC088EC90E09C838B838B8120
:1013B0009C810197F1F79C838B838D819E8101979E
:1013C0009E838D838D819E81009769F714C06F8104
:1013D000788589859A850E944900DC01CB019E832E
:1013E0008D838D819E819A83898389819A810197DA
:1013F000F1F79A83898380E064E040E00E948C07E3
:101400002F960FB6F894DEBF0FBECDBFCF91DF9100
:101410000895DF93CF93CDB7DEB72F970FB6F8942B
:10142000DEBF0FBECDBF8F8780E064E040E00E944A
:101430008C0780E062E041E00E948C0780E063E07E
:1014400040E00E948C0782E06F850E94740680E075
:1014500064E041E00E948C0780E090E0A0E0B0E40E
:101460008B879C87AD87BE876B857C858D859E85A8
:1014700020E030E04AEF54E40E941F02DC01CB017F
:101480008F839887A987BA876F81788589859A85A0
:1014900020E030E040E85FE30E94790388232CF4E9
:1014A00081E090E09E838D833FC06F817885898540
:1014B0009A8520E03FEF4FE757E40E941903181682
:1014C0004CF56B857C858D859E8520E030E040E283
:1014D00051E40E941F02DC01CB01BC01CD010E943E
:1014E0004900DC01CB019E838D830FC088EC90E026
:1014F0009C838B838B819C810197F1F79C838B83E9
:101500008D819E8101979E838D838D819E81009721
:1015100069F714C06F81788589859A850E94490092
:10152000DC01CB019E838D838D819E819A8389838B
:1015300089819A810197F1F79A83898380E064E039
:1015400040E00E948C072F960FB6F894DEBF0FBEC6
:10155000CDBFCF91DF910895DF93CF93CDB7DEB7A5
:10156000E8970FB6F894DEBF0FBECDBF80E090E0E5
:10157000A0E2B2E48DAB9EABAFABB8AF6DA97EA9D4
:101580008FA998AD20E030E04AEF54E40E941F029A
:10159000DC01CB0189AB9AABABABBCAB69A97AA937
:1015A0008BA99CA920E030E040E85FE30E9479032A
:1015B00088232CF481E090E098AB8FA73FC069A905
:1015C0007AA98BA99CA920E03FEF4FE757E40E943E
:1015D000190318164CF56DA97EA98FA998AD20E0C6
:1015E00030E040E251E40E941F02DC01CB01BC016B
:1015F000CD010E944900DC01CB0198AB8FA70FC041
:1016000088EC90E09EA78DA78DA59EA50197F1F788
:101610009EA78DA78FA598A9019798AB8FA78FA597
:1016200098A9009769F714C069A97AA98BA99CA900
:101630000E944900DC01CB0198AB8FA78FA598A928
:101640009CA78BA78BA59CA50197F1F79CA78BA7BF
:1016500088E30E94660980E090E0A0E8BFE38FA3E2
:1016600098A7A9A7BAA76FA178A589A59AA520E0F0
:1016700030E04AEF54E40E941F02DC01CB018BA34F
:101680009CA3ADA3BEA36BA17CA18DA19EA120E0D4
:1016900030E040E85FE30E94790388232CF481E086
:1016A00090E09AA389A33FC06BA17CA18DA19EA1CC
:1016B00020E03FEF4FE757E40E94190318164CF55E
:1016C0006FA178A589A59AA520E030E040E251E419
:1016D0000E941F02DC01CB01BC01CD010E94490028
:1016E000DC01CB019AA389A30FC088EC90E098A3FA
:1016F0008F8F8F8D98A10197F1F798A38F8F89A174
:101700009AA101979AA389A389A19AA1009769F741
:1017100014C06BA17CA18DA19EA10E944900DC0197
:10172000CB019AA389A389A19AA19E8F8D8F8D8DBC
:101730009E8D0197F1F79E8F8D8F8CE00E94660938
:1017400080E090E0A0E8BFE3898F9A8FAB8FBC8FD9
:10175000698D7A8D8B8D9C8D20E030E04AEF54E4CA
:101760000E941F02DC01CB018D8B9E8BAF8BB88F4B
:101770006D897E898F89988D20E030E040E85FE3B5
:101780000E94790388232CF481E090E09C8B8B8B62
:101790003FC06D897E898F89988D20E03FEF4FE7AC
:1017A00057E40E94190318164CF5698D7A8D8B8DBC
:1017B0009C8D20E030E040E251E40E941F02DC01F9
:1017C000CB01BC01CD010E944900DC01CB019C8B07
:1017D0008B8B0FC088EC90E09A8B898B89899A89D2
:1017E0000197F1F79A8B898B8B899C8901979C8B48
:1017F0008B8B8B899C89009769F714C06D897E89D2
:101800008F89988D0E944900DC01CB019C8B8B8BCA
:101810008B899C89988B8F878F8598890197F1F7A1
:10182000988B8F8781E00E94660980E090E0A0E0BD
:10183000B0E48B879C87AD87BE876B857C858D8563
:101840009E8520E030E04AEF54E40E941F02DC0154
:10185000CB018F839887A987BA876F81788589851F
:101860009A8520E030E040E85FE30E947903882316
:101870002CF481E090E09E838D833FC06F8178855A
:1018800089859A8520E03FEF4FE757E40E941903CE
:1018900018164CF56B857C858D859E8520E030E0A3
:1018A00040E251E40E941F02DC01CB01BC01CD01EA
:1018B0000E944900DC01CB019E838D830FC088EC20
:1018C00090E09C838B838B819C810197F1F79C83B3
:1018D0008B838D819E8101979E838D838D819E81D7
:1018E000009769F714C06F81788589859A850E9471
:1018F0004900DC01CB019E838D838D819E819A837B
:10190000898389819A810197F1F79A838983E8967F
:101910000FB6F894DEBF0FBECDBFCF91DF91089513
:10192000DF93CF9300D000D0CDB7DEB79B838A83FF
:101930006C8319820EC08981282F30E08A819B81B7
:10194000FC01E20FF31F80810E94090A89818F5FE9
:10195000898399818C81981770F30F900F900F9065
:101960000F90CF91DF910895DF93CF9300D00F9226
:10197000CDB7DEB78A836B838B81882F90E00024FC
:10198000969587950794969587950794982F802D1F
:10199000982F8A81890F8058898389810E946609DE
:1019A0000F900F900F90CF91DF910895DF93CF9319
:1019B00000D00F92CDB7DEB79B838A8380E40E946C
:1019C000660919820EC08981282F30E08A819B81A7
:1019D000FC01E20FF31F80810E94090A89818F5F59
:1019E00089838981803378F30F900F900F90CF9186
:1019F000DF910895DF93CF93CDB7DEB72C970FB665
:101A0000F894DEBF0FBECDBF98878F8369874A8762
:101A10001E821D821B821A8219828F8198859E8365
:101A20008D838D819E810097A9F489856A850E94A6
:101A3000B40C80E30E94090A0DC08D819E812AE0CA
:101A400030E0B9010E94CC17CB019E838D838B813E
:101A50008F5F8B838D819E81009779F78B8189833E
:101A60008F8198859E838D831C820CC18D819E8180
:101A70002AE030E0B9010E94CC178A838A81282F9E
:101A800030E03C872B878B859C858430910509F459
:101A90008BC02B853C8525303105ECF48B859C85EE
:101AA0008130910509F44DC02B853C8522303105EC
:101AB0002CF48B859C85009799F1D7C02B853C85AC
:101AC0002230310509F44EC08B859C858330910509
:101AD00009F459C0CAC02B853C852730310509F46B
:101AE00095C08B859C85883091056CF42B853C8551
:101AF0002530310509F469C08B859C8586309105B8
:101B000009F474C0B2C02B853C852830310509F436
:101B10008DC08B859C858930910509F497C0A5C03F
:101B20008A81882309F0A1C08B8181508B839B819E
:101B30008985890F6A850E94B40C80E30E94090A96
:101B400094C08A81813009F090C08B8181508B8351
:101B50009B818985890F6A850E94B40C81E30E946C
:101B6000090A83C08A81823009F07FC08B8181504D
:101B70008B839B818985890F6A850E94B40C82E3DF
:101B80000E94090A72C08A81833009F06EC08B817D
:101B900081508B839B818985890F6A850E94B40C53
:101BA00083E30E94090A61C08A81843009F05DC024
:101BB0008B8181508B839B818985890F6A850E94E7
:101BC000B40C84E30E94090A50C08A81853009F070
:101BD0004CC08B8181508B839B818985890F6A855D
:101BE0000E94B40C85E30E94090A3FC08A818630B6
:101BF000E1F58B8181508B839B818985890F6A8573
:101C00000E94B40C86E30E94090A2FC08A818730A3
:101C100061F58B8181508B839B818985890F6A85D2
:101C20000E94B40C87E30E94090A1FC08A81883091
:101C3000E1F48B8181508B839B818985890F6A8533
:101C40000E94B40C88E30E94090A0FC08A8189307F
:101C500061F48B8181508B839B818985890F6A8593
:101C60000E94B40C89E30E94090A8D819E812AE0BA
:101C700030E0B9010E94CC17CB019E838D838C810B
:101C80008F5F8C839C818981981708F4EFCE2C9606
:101C90000FB6F894DEBF0FBECDBFCF91DF91089590
:101CA000DF93CF93CDB7DEB72E970FB6F894DEBF94
:101CB0000FBECDBF81E00E94660980E090E0A0E009
:101CC000B0E48B879C87AD87BE876B857C858D85CF
:101CD0009E8520E030E04AEF54E40E941F02DC01C0
:101CE000CB018F839887A987BA876F81788589858B
:101CF0009A8520E030E040E85FE30E947903882382
:101D00002CF481E090E09E838D833FC06F817885C5
:101D100089859A8520E03FEF4FE757E40E94190339
:101D200018164CF56B857C858D859E8520E030E00E
:101D300040E251E40E941F02DC01CB01BC01CD0155
:101D40000E944900DC01CB019E838D830FC088EC8B
:101D500090E09C838B838B819C810197F1F79C831E
:101D60008B838D819E8101979E838D838D819E8142
:101D7000009769F714C06F81788589859A850E94DC
:101D80004900DC01CB019E838D838D819E819A83E6
:101D9000898389819A810197F1F79A8389832E96A5
:101DA0000FB6F894DEBF0FBECDBFCF91DF9108957F
:101DB000DF93CF9300D000D000D0CDB7DEB79C83A7
:101DC0008B837E836D832B813C8184EF91E0AC011A
:101DD000249FC001259F900D349F900D1124892FC1
:101DE00099279A8389832B813C8185E390E0AC011C
:101DF000249FC001259F900D349F900D112428EE43
:101E000033E0B9010E94CC17CB019C0189819A81F2
:101E1000820F931F9A838983ED81FE8189819A8144
:101E20009183808380E026960FB6F894DEBF0FBEC4
:101E3000CDBFCF91DF910895DF93CF9300D0CDB781
:101E4000DEB79A83898389E061E00E94B40C80E662
:101E500090E061E00E94900C2091B2013091B301BA
:101E600089819A8128173907F1F080E060E00E94AB
:101E7000B40C82E690E065E00E94900C87E061E09F
:101E80000E94B40C88E690E065E00E94900C898185
:101E90009A8166E041E00E94FA0C89819A819093D0
:101EA000B3018093B20180E00F900F90CF91DF914A
:101EB0000895DF93CF930F92CDB7DEB71982AAE2D0
:101EC000B0E0EAE2F0E0808188608C93AAE2B0E0C2
:101ED000EAE2F0E0808180618C9389818068898367
:101EE00089818F7B89838981877F8983AAE2B0E09A
:101EF000EAE2F0E080818B7F8C9389818260898324
:101F0000898184608983ABE2B0E0EBE2F0E080811C
:101F10008D7F8C93E9E2F0E083E38083ABE2B0E075
:101F2000EBE2F0E080818E7F8C93AAE2B0E0EAE2FF
:101F3000F0E0808180648C93AAE2B0E0EAE2F0E015
:101F4000808180688C93AAE2B0E0EAE2F0E08081D0
:101F500080628C93E0E4F0E0898180830F90CF91E0
:101F6000DF910895DF93CF930F92CDB7DEB78983CA
:101F7000EBE2F0E08081829586958770882F90E073
:101F8000817090700097A1F3ECE2F0E0898180838A
:101F900080E00F90CF91DF910895DF93CF93CDB77D
:101FA000DEB7EBE2F0E080818823DCF7ECE2F0E0E2
:101FB0008081CF91DF910895DF93CF9300D00F926E
:101FC000CDB7DEB79B838A8319820EC08981282F03
:101FD00030E08A819B81FC01E20FF31F80810E9427
:101FE000B20F89818F5F89838981282F30E08A81B0
:101FF0009B81FC01E20FF31F8081882339F70F904A
:102000000F900F90CF91DF9108950F931F93DF935F
:10201000CF9300D00F92CDB7DEB79B838A8319820E
:102020000CC08981282F30E08A819B818C01020FAE
:10203000131F0E94CD0FF80180838981282F30E083
:102040008A819B81FC01E20FF31F8081882349F77D
:102050000F900F900F90CF91DF911F910F910895E6
:10206000DF93CF93CDB7DEB7E1970FB6F894DEBF1D
:102070000FBECDBF9BA78AA72DB73EB739AB28AB04
:102080008DB79EB79DA78CA78AA59BA50E945718C0
:102090008FA31BA21CA21DA21EA28FA1882F90E0BD
:1020A0002DB73EB7281B390B0FB6F8943EBF0FBEB5
:1020B0002DBF8DB79EB701969FA78EA78EA59FA512
:1020C00000969FA78EA72EA53FA539A728A7809188
:1020D000B8019091B901A091BA01B091BB019C01E6
:1020E000AD01205F384D4F4F5F4F8BA19CA1ADA13B
:1020F000BEA182179307A407B50760F01092B8013C
:102100001092B9011092BA011092BB0182E0809343
:102110005C027AC180915C02843011F410925C02FE
:102120008CEB91E00E945718CC01A0E0B0E08F8FBB
:1021300098A3A9A3BAA38F8D98A1A9A1BAA100972A
:10214000A105B10509F4E2C080E090E0A0E8BFE39A
:10215000898F9A8FAB8FBC8F698D7A8D8B8D9C8D7B
:1021600020E030E04AEF54E40E941F02DC01CB0182
:102170008D8B9E8BAF8BB88F6D897E898F89988D63
:1021800020E030E040E85FE30E94790388232CF4EC
:1021900081E090E09C8B8B8B3FC06D897E898F891D
:1021A000988D20E03FEF4FE757E40E94190318167F
:1021B0004CF5698D7A8D8B8D9C8D20E030E040E26E
:1021C00051E40E941F02DC01CB01BC01CD010E9441
:1021D0004900DC01CB019C8B8B8B0FC088EC90E01D
:1021E0009A8B898B89899A890197F1F79A8B898BC8
:1021F0008B899C8901979C8B8B8B8B899C89009701
:1022000069F714C06D897E898F89988D0E94490075
:10221000DC01CB019C8B8B8B8B899C89988B8F8766
:102220008F8598890197F1F7988B8F878BA19CA157
:10223000ADA1BEA10196A11DB11D8BA39CA3ADA311
:10224000BEA38CEB91E00E9457189C0140E050E047
:102250008F8D98A1A9A1BAA1281739074A075B0752
:1022600009F054C01E8E1D8E42C068A579A588A5B0
:1022700099A5AC014F5F5F4F8FA1882F90E0019728
:102280009C01CB01BA01A9010E943E188FA1882FA1
:1022900090E09C01215030408D8D9E8DFC01E454D6
:1022A000FE4F408188A599A5FC01E20FF31F4083F2
:1022B00048A559A58FA1E82FF0E02AA53BA5CA01A2
:1022C000B901AF010E946018009761F41092B80143
:1022D0001092B9011092BA011092BB0181E0809373
:1022E0005C0292C08D8D9E8D01969E8F8D8F8D8DFF
:1022F0009E8D9C0140E050E08F8D98A1A9A1BAA1CC
:10230000281739074A075B0708F4AFCF80E090E051
:10231000A0E8BFE38B879C87AD87BE876B857C85F4
:102320008D859E8520E030E04AEF54E40E941F0234
:10233000DC01CB018F839887A987BA876F81788565
:1023400089859A8520E030E040E85FE30E947903C8
:1023500088232CF481E090E09E838D833FC06F81C1
:10236000788589859A8520E03FEF4FE757E40E9402
:10237000190318164CF56B857C858D859E8520E0AC
:1023800030E040E251E40E941F02DC01CB01BC01BD
:10239000CD010E944900DC01CB019E838D830FC0DB
:1023A00088EC90E09C838B838B819C810197F1F773
:1023B0009C838B838D819E8101979E838D838D81EC
:1023C0009E81009769F714C06F81788589859A8509
:1023D0000E944900DC01CB019E838D838D819E810B
:1023E0009A83898389819A810197F1F79A838983F6
:1023F0008BA19CA1ADA1BEA10196A11DB11D8BA376
:102400009CA3ADA3BEA363CE8CA59DA50FB6F894E7
:102410009EBF0FBE8DBF28A939A90FB6F8943EBF45
:102420000FBE2DBFE1960FB6F894DEBF0FBECDBF35
:10243000CF91DF910895DF93CF93CDB7DEB78CEBCB
:1024400091E060E070E040EA50E00E945018109285
:10245000B5011092B4011092B7011092B601CF915C
:10246000DF910895DF93CF9300D0CDB7DEB79A8385
:10247000898384E080935C0289819A810E94301074
:1024800080915C028823C1F30F900F90CF91DF9170
:102490000895DF93CF93CDB7DEB72D970FB6F8949D
:1024A000DEBF0FBECDBF9B878A877D876C878CE0A0
:1024B00090E09C838B8305C08B819C8101969C83DB
:1024C0008B832A853B858B819C81F901E80FF91F5D
:1024D00080818D3089F78A859B85AC01445F5F4F91
:1024E0008B819C819C012C503040CE010596BA0115
:1024F000A9010E946E18CE0105960E9417189D87AB
:102500008C878B819C8102969C838B838A859B859B
:102510000E9457189C018B819C81A901481B590B73
:10252000CA019A8389832A853B858B819C81A90175
:10253000480F591F8A859B8529813A81BA01A901D3
:102540000E94351889819A819C01265030408A85E5
:102550009B85820F931F2EE630E0B90146E050E0E4
:102560000E946018009799F489819A819C012650F5
:1025700030408A859B85280F391F8B819C81AC0157
:102580004A5F5F4FC90160E070E00E9450182D96CD
:102590000FB6F894DEBF0FBECDBFCF91DF91089587
:1025A000DF93CF9300D00F92CDB7DEB79A838983A4
:1025B00089819A810E94321280915C02823019F0E6
:1025C00081E08B8301C01B828B810F900F900F9055
:1025D000CF91DF910895DF93CF9300D000D0CDB796
:1025E000DEB79A8389837C836B830E941B12898167
:1025F0009A810E94DC0F85E790E00E94DC0F8B81BE
:102600009C810E94D0120F900F900F900F90CF914D
:10261000DF910895DF93CF93CDB7DEB765970FB6FF
:10262000F894DEBF0FBECDBF8D8BCE01019660E06A
:1026300070E044E150E00E9450188D89282F30E06E
:1026400000D000D000D0EDB7FEB73196CE01019694
:102650009183808388E790E093838283358324830A
:102660000E949F188DB79EB706960FB6F8949EBF2E
:102670000FBE8DBF1C8A2EE630E0CE010196B90157
:102680000E94EB1265960FB6F894DEBF0FBECDBF69
:10269000CF91DF910895DF93CF93CDB7DEB76597E4
:1026A0000FB6F894DEBF0FBECDBF8D8BCE01019665
:1026B00060E070E044E150E00E9450188D89282FBE
:1026C00030E000D000D000D0EDB7FEB73196CE019B
:1026D00001969183808386E890E09383828335839B
:1026E00024830E949F188DB79EB706960FB6F89464
:1026F0009EBF0FBE8DBF1C8A2EE630E0CE01019634
:10270000B9010E94EB1265960FB6F894DEBF0FBEBA
:10271000CDBFCF91DF910895DF93CF9300D0CDB798
:10272000DEB7198218C083E990E02EE630E0B901E7
:102730000E94EB12882349F488E990E02EE630E00D
:10274000B9010E94EB12882319F081E08A8307C047
:1027500089818F5F89838981853028F31A828A81F4
:102760000F900F90CF91DF910895DF93CF93CDB766
:10277000DEB78BE990E02EE630E0B9010E94EB1263
:10278000CF91DF910895DF93CF93CDB7DEB76597F3
:102790000FB6F894DEBF0FBECDBF8D8BCE01019674
:1027A00060E070E044E150E00E9450188D89282FCD
:1027B00030E000D000D000D0EDB7FEB73196CE01AA
:1027C00001969183808389EA90E0938382833583A5
:1027D00024830E949F188DB79EB706960FB6F89473
:1027E0009EBF0FBE8DBF1C8A2EE630E0CE01019643
:1027F000B9010E94EB1265960FB6F894DEBF0FBECA
:10280000CDBFCF91DF910895DF93CF93CDB7DEB7E2
:10281000C154D0400FB6F894DEBF0FBECDBF9EAFFF
:102820008DAFFE01FF9671836083CE01019660E05B
:1028300070E04CE350E00E9450188DB79EB70897A7
:102840000FB6F8949EBF0FBE8DBFADB7BEB7119641
:10285000CE01019611969C938E9386EB90E0139691
:102860009C938E9312978DAD9EAD15969C938E93EF
:102870001497FE01FF968081918117969C938E9309
:1028800016970E949F188DB79EB708960FB6F894BA
:102890009EBF0FBE8DBF1CAE29EC30E0CE0101966D
:1028A000B9010E94EB12882321F022961FAE2297D5
:1028B0003CC08CEB91E02CED30E0B9010E947D181A
:1028C000009729F091E022969FAF22972EC08CEBC3
:1028D00091E025EE30E0B9010E947D18009729F0C3
:1028E00082E022968FAF229720C08CEB91E02EEEF3
:1028F00030E0B9010E947D18009729F093E02296FC
:102900009FAF229712C08CEB91E027EF30E0B90126
:102910000E947D18009729F084E022968FAF2297BD
:1029200004C095E022969FAF229722968FAD229702
:10293000CF5BDF4F0FB6F894DEBF0FBECDBFCF9198
:10294000DF910895DF93CF930F92CDB7DEB780E08C
:1029500091E02EE630E0B9010E94EB128CEB91E0A1
:102960002DE031E0B9010E947D18009711F0198225
:1029700026C08CEB91E026E131E0B9010E947D1880
:10298000009719F081E089831AC08CEB91E02FE168
:1029900031E0B9010E947D18009719F082E0898327
:1029A0000EC08CEB91E028E231E0B9010E947D1865
:1029B000009719F083E0898302C084E089838981CC
:1029C0000F90CF91DF910895DF93CF93CDB7DEB70E
:1029D000C354D0400FB6F894DEBF0FBECDBF8EAF4C
:1029E000FE01FF9671836083FE01EF5BFF4F518311
:1029F0004083CE01029660E070E04CE350E00E941C
:102A000050181DAE81E391E02CE331E0B9010E9442
:102A1000EB12882391F18DB79EB708970FB6F89403
:102A20009EBF0FBE8DBFADB7BEB71196CE01029649
:102A300011969C938E9385E491E013969C938E93CC
:102A40001297FE01FF968081918115969C938E933B
:102A50001497FE01EF5BFF4F8081918117969C9345
:102A60008E9316970E949F188DB79EB708960FB643
:102A7000F8949EBF0FBE8DBF38C08EAD282F30E0BA
:102A80008DB79EB70A970FB6F8949EBF0FBE8DBF45
:102A9000ADB7BEB71196CE01029611969C938E9358
:102AA0008FE591E013969C938E93129715963C9325
:102AB0002E931497FE01FF968081918117969C9327
:102AC0008E931697FE01EF5BFF4F808191811996DF
:102AD0009C938E9318970E949F188DB79EB70A9665
:102AE0000FB6F8949EBF0FBE8DBFCE0102962EE7A3
:102AF00031E0B9010E94EB128983998181E0892735
:102B0000882371F080915C02823029F492E024964F
:102B10009FAF249709C085E024968FAF249704C007
:102B200091E024969FAF249724968FAD2497CD5B98
:102B3000DF4F0FB6F894DEBF0FBECDBFCF91DF9150
:102B40000895DF93CF93CDB7DEB767970FB6F894AC
:102B5000DEBF0FBECDBF9E8B8D8BCE01019660E098
:102B600070E044E150E00E9450188D899E890E94D7
:102B700057189C012E5F3F4F00D000D000D0EDB71A
:102B8000FEB73196CE0101969183808388E891E06B
:102B900093838283358324830E949F188DB79EB7C9
:102BA00006960FB6F8949EBF0FBE8DBF1C8A26E90D
:102BB00031E0CE010196B9010E94EB128D899E8908
:102BC0002EE931E0B9010E94EB12982F81E08927AC
:102BD000882351F080915C02823019F492E09F8B3F
:102BE00005C085E08F8B02C091E09F8B8F8967962F
:102BF0000FB6F894DEBF0FBECDBFCF91DF91089521
:102C0000DF93CF93CDB7DEB72091B4013091B501FA
:102C10008091B6019091B701A901481B590BCA01D7
:102C2000CF91DF910895DF93CF930F92CDB7DEB7A9
:102C30002091B6013091B7018091B4019091B50116
:102C4000281739077CF48091B6019091B701FC01F7
:102C5000E454FE4F2081298301969093B70180931D
:102C6000B60103C00E941B12198289810F90CF9177
:102C7000DF9108950F931F93DF93CF93CDB7DEB706
:102C800062970FB6F894DEBF0FBECDBF9A8B898BCB
:102C9000188A1F8680E090E0A8ECB2E48B879C87BE
:102CA000AD87BE876B857C858D859E8520E030E075
:102CB0004AEF54E40E941F02DC01CB018F83988706
:102CC000A987BA876F81788589859A8520E030E069
:102CD00040E85FE30E94790388232CF481E090E0D0
:102CE0009E838D833FC06F81788589859A8520E09A
:102CF0003FEF4FE757E40E94190318164CF56B8518
:102D00007C858D859E8520E030E040E251E40E9484
:102D10001F02DC01CB01BC01CD010E944900DC0196
:102D2000CB019E838D830FC088EC90E09C838B83C6
:102D30008B819C810197F1F79C838B838D819E8190
:102D400001979E838D838D819E81009769F725C0B1
:102D50006F81788589859A850E944900DC01CB01C5
:102D60009E838D838D819E819A83898389819A81B7
:102D70000197F1F79A83898310C029893A898F8551
:102D800098898901080F191F0E941316F801808382
:102D90008F8598890196988B8F870E940016181648
:102DA00019065CF38F85988962960FB6F894DEBF9A
:102DB0000FBECDBFCF91DF911F910F9108951F924C
:102DC0000F920FB60F9211242F938F939F93AF936F
:102DD000BF93EF93FF93DF93CF93CDB7DEB7AFE50C
:102DE000B0E0EFE5F0E080818F778C938091B401C3
:102DF0009091B501ECE2F0E02081FC01E454FE4F3B
:102E000020838091B4019091B50101969093B50112
:102E10008093B4018091B4019091B501803A9105FD
:102E200041F41092B5011092B4011092B7011092C2
:102E3000B601AFE5B0E0EFE5F0E0808180688C930B
:102E4000CF91DF91FF91EF91BF91AF919F918F91C2
:102E50002F910F900FBE0F901F901895DF93CF9377
:102E6000CDB7DEB7C95AD0400FB6F894DEBF0FBE5B
:102E7000CDBF0E944C090E94AC0A0E94A30580E0CD
:102E800060E040E00E94BC060E94590F9E01205F56
:102E90003F4F80E0B9010E94E205888999899E012F
:102EA0002E5E3F4FB9010E94D80E8A899B890E94ED
:102EB0001C0F80E090E0AAEFB3E48B879C87AD877E
:102EC000BE876B857C858D859E8520E030E04AEF4E
:102ED00054E40E941F02DC01CB018F839887A987ED
:102EE000BA876F81788589859A8520E030E040E84F
:102EF0005FE30E94790388232CF481E090E09E83B5
:102F00008D833FC06F81788589859A8520E03FEF6A
:102F10004FE757E40E94190318164CF56B857C8522
:102F20008D859E8520E030E040E251E40E941F0242
:102F3000DC01CB01BC01CD010E944900DC01CB01C9
:102F40009E838D830FC088EC90E09C838B838B8164
:102F50009C810197F1F79C838B838D819E810197E2
:102F60009E838D838D819E81009769F78FCF6F81BE
:102F7000788589859A850E944900DC01CB019E8372
:102F80008D838D819E819A83898389819A8101971E
:102F9000F1F79A8389837ACFAA1BBB1B51E107C043
:102FA000AA1FBB1FA617B70710F0A61BB70B881FD9
:102FB000991F5A95A9F780959095BC01CD01089568
:102FC0002F923F924F925F926F927F928F929F9239
:102FD000AF92BF92CF92DF92EF92FF920F931F9327
:102FE000CF93DF93CDB7DEB7CA1BDB0B0FB6F894D8
:102FF000DEBF0FBECDBF09942A88398848885F8418
:103000006E847D848C849B84AA84B984C884DF8088
:10301000EE80FD800C811B81AA81B981CE0FD11D6C
:103020000FB6F894DEBF0FBECDBFED010895FC01D1
:1030300088279927E89421912032E9F3293010F06C
:103040002E30C8F32B3241F02D3239F4689404C08D
:103050000E949718820F911D219120532A30C0F3AE
:103060001EF4909581959F4F0895FB01DC0102C0ED
:1030700001900D9241505040D8F708956817790794
:1030800068F4FB01DC01E40FF51FA40FB51F02C0BB
:1030900002900E9241505040D8F708950C94351884
:1030A000DC0101C06D9341505040E0F70895FC01F0
:1030B00001900020E9F7809590958E0F9F1F08954D
:1030C000FB01DC014150504030F08D91019080199E
:1030D00019F40020B9F7881B990B0895FB01DC0156
:1030E0004150504048F001900D920020C9F701C0B6
:1030F0001D9241505040E0F70895FB015191552336
:10310000A9F0BF01DC014D9145174111E1F759F4D8
:10311000CD010190002049F04D9140154111C9F3B6
:10312000FB014111EFCF81E090E0019708957AE033
:10313000979F902D879F802D910D11240895AEE0CB
:10314000B0E0E5EAF8E10C94EE170D891E8986E0FF
:103150008C831A8309838FEF9FE79E838D839E0163
:10316000275E3F4FCE0101966F89788DA9010E949D
:10317000C3182F813885020F131FF80110822E9675
:10318000E4E00C940A18ABE0B0E0E9ECF8E10C9450
:10319000E0173C012B015A01FC0117821682838142
:1031A00081FD03C06FEF7FEFC6C19AE0892E1E013B
:1031B0000894211C311CF3012381F20123FD859128
:1031C00023FF81912F01882309F4B2C1853239F49C
:1031D00023FD859123FF81912F01853229F490E011
:1031E000B3010E94B61AE7CF982FFF24EE2499244A
:1031F000FFE1FF15D0F09B3269F09C3228F4903249
:1032000059F0933291F40EC09D3249F0903369F435
:1032100041E024C052E0F52A84E0F82A28C098E072
:10322000F92A25C0E0E1FE2A22C0F7FC29C0892F37
:1032300080538A3070F4F6FE05C0989C902C1124BF
:10324000980E15C0E89CE02C1124E80EF0E2FF2A4D
:103250000EC09E3229F4F6FC6BC140E4F42A07C08C
:103260009C3619F450E8F52A02C0983649F4F20168
:1032700023FD959123FF91912F01992309F0B8CF58
:10328000892F8554833018F08052833038F444E01D
:1032900050E0A40EB51E5FE359830FC0933631F0A2
:1032A000933779F0933509F056C020C0F50180813D
:1032B000898342E050E0A40EB51E610101E010E0F8
:1032C00012C0F501C080D180F6FC03C06FEF7FEF24
:1032D00002C0692D70E042E050E0A40EB51EC601A8
:1032E0000E94AB1A8C015FE7F52214C0F501C08083
:1032F000D180F6FC03C06FEF7FEF02C0692D70E054
:1033000042E050E0A40EB51EC6010E94A01A8C0136
:1033100050E8F52AF3FE07C01AC080E290E0B3013E
:103320000E94B61AEA948E2D90E008171907A8F3A8
:103330000EC0F601F7FC8591F7FE81916F0190E0D8
:10334000B3010E94B61AE110EA9401501040011531
:10335000110579F7EAC0943611F0993669F5F7FE50
:1033600008C0F501208131814281538184E090E0E1
:103370000AC0F501808191819C01442737FD409569
:10338000542F82E090E0A80EB91E9FE6F92257FF65
:1033900009C050954095309521953F4F4F4F5F4F55
:1033A000E0E8FE2ACA01B901A1012AE030E00E944A
:1033B000E21AD82ED21840C0953729F41F2D1F7E4F
:1033C0002AE030E01DC01F2D197F9F3661F0903735
:1033D00020F4983509F0ACC00FC0903739F0983719
:1033E00009F0A6C004C028E030E00AC0106114FD56
:1033F000146020E130E004C014FD166020E132E0EA
:1034000017FF08C0F501608171818281938144E0DA
:1034100050E008C0F50180819181BC0180E090E01E
:1034200042E050E0A40EB51EA1010E94E21AD82E7F
:10343000D2188FE7F82EF122F6FE0BC05EEFF522D0
:10344000D91438F4F4FE07C0F2FC05C08FEEF82260
:1034500002C01D2D01C0192DF4FE0DC0FE01ED0DA1
:10346000F11D8081803319F499EEF92208C01F5FA5
:10347000F2FE05C003C08F2D867809F01F5F0F2D67
:10348000F3FC14C0F0FE0FC01E1510F09D2C0BC0F5
:103490009D2C9E0C911A1E2D06C080E290E0B30177
:1034A0000E94B61A1F5F1E15C0F304C01E1510F44B
:1034B000E11A01C0EE2404FF0FC080E390E0B301E5
:1034C0000E94B61A02FF1DC001FD03C088E790E00C
:1034D0000EC088E590E00BC0802F867891F001FF48
:1034E00002C08BE201C080E2F7FC8DE290E0B30104
:1034F0000E94B61A06C080E390E0B3010E94B61A9B
:103500009A94D914C0F3DA94F101ED0DF11D808184
:1035100090E0B3010E94B61ADD20A9F706C080E250
:1035200090E0B3010E94B61AEA94EE20C1F743CEB0
:10353000F30166817781CB012B96E2E10C94FC17B5
:10354000FC010590615070400110D8F7809590956E
:103550008E0F9F1F0895FC01615070400190011073
:10356000D8F7809590958E0F9F1F08950F931F9306
:10357000CF93DF938C01EB018B8181FF1BC082FF16
:103580000DC02E813F818C819D812817390764F4FD
:10359000E881F9810193F983E88306C0E885F9851C
:1035A000802F0995892B31F48E819F8101969F830D
:1035B0008E8302C00FEF1FEFC801DF91CF911F91E3
:1035C0000F910895FA01AA27283051F1203181F195
:1035D000E8946F936E7F6E5F7F4F8F4F9F4FAF4F1B
:1035E000B1E03ED0B4E03CD0670F781F891F9A1F2E
:1035F000A11D680F791F8A1F911DA11D6A0F711DE2
:10360000811D911DA11D20D009F468943F912AE0ED
:10361000269F11243019305D3193DEF6CF010895D5
:10362000462F4770405D4193B3E00FD0C9F7F6CF06
:10363000462F4F70405D4A3318F0495D31FD4052CE
:10364000419302D0A9F7EACFB4E0A6959795879564
:1036500077956795BA95C9F7009761057105089543
:103660009B01AC010A2E06945795479537952795EF
:10367000BA95C9F7620F731F841F951FA01D089587
:04368000F894FFCFEC
:10368400430054454D503A002020202020000D0ACC
:103694004F4B0D0A000D0A0041542B4349504D4F26
:1036A40044453D25640041542B4349504D55583DF4
:1036B400256400415445300041540041542B434992
:1036C40050434C4F53453D310041542B43574D4FCC
:1036D40044453D25640041542B43574A41503D2203
:1036E4002573222C22257322000D0A5749464920AE
:1036F400434F4E4E45435445440D0A002B43574A0D
:1037040041503A31002B43574A41503A32002B433F
:10371400574A41503A33002B43574A41503A3400F8
:1037240041542B434950535441545553005354412D
:103734005455533A32005354415455533A33005379
:1037440054415455533A34005354415455533A3523
:103754000041542B4349504D55583F004349504D67
:1037640055583A300041542B434950535441525414
:103774003D22544350222C222573222C25730041D0
:10378400542B43495053544152543D222564222C16
:1037940022544350222C222573222C257300434F9C
:1037A4004E4E4543540D0A0041542B434950534552
:1037B4004E443D2564000D0A4F4B0D0A3E000D0A90
:1037C40053454E44204F4B0D0A00000000000000FA
:0237D4000000F3
:00000001FF
